:400000000010002011000000A5170000A517000080B500AF01F0D0FB80B500AF204B204A12688021C9020A431A60212001F06AFC1C4B1D4A1A601D4B11221A601C4B302253
:400040001A601C4B21221A601B4B10221A601B4B20221A601A4B802212061A60104B8022D2021A60174B802212061A60164B174A1A60174B154A1A60164B174A1A60174B1F
:40008000174A1A60174B1900092001F051FD092001F0C8FD144B00221A60C046BD4680BD00010B4004010B4006000080080202402002024024020240280202403002024048
:4000C00008010B400000024040000240010000808000024004000240030000804400024039200080491F00000C020B4080B582B000AF72B6FB1D00221A7022E0FB1D1A780E
:4001000013005B009B185B00414A9B183B603B681A78597809020A43997809040A43DB781B06134318003B681A795B791B0213439BB2190001F0DEFAFB1D1A78FB1D01321E
:400140001A70FB1D1B78012BD8D9324A324B1100180001F0DFFA314B802252001A80304B01221A702F4BC02292011A602E4BEE2212021A602D4B99221A602D4B2D4A1A60B9
:400180002D4BA02292051A602C4B992212041A602B4BC02212041A602A4B992212041A60294B2A4A1A602A4A294B1B78DBB23C218B43DBB214210B43DBB21370254A254BF6
:4001C0001B78DBB216210B43DBB21370224B71221A60224B224A1A60224B08221A60224B224A1A60224BD82212011A60214B02221A60214B31221A60204B02221A60FFF7E3
:400200000BFF01F0C9FAC046BD4602B080BDC04608690000346900001469000000600F4002600F40040001400C0001401000014000500F400400990004500F4010500F40A6
:4002400018500F4030500F40A0010540FC0C000001700F4000700F400000044008000440DA2009000001044008010440006C1B000803044000040440080404401804044098
:4002800010B5064C2378002B07D1054B002B02D0044800E000BF0123237010BD5001002000000000EC480000084B10B5002B03D00749084800E000BF07480368002B00D11D
:4002C00010BD064B002BFBD09847F9E70000000054010020EC480000C80000200000000080B500AF2D4B1B685A1C2C4B1A602C4B1B7FDBB2452B04D0294B1B7FDBB2462B66
:4003000028D1284B1A68FF235B009A421ED8234B1B685B02224A928C92B25A43204B5B8C9BB21900FA239B004B431900100002F09BFD03001A001C4B134003D5013B1B4AC6
:40034000134301331A00174B1A6024E0154B184A1A6020E0124B9B8C9BB21A000F4B1B6853435A020E4B5B8C9BB21900FA239B004B431900100002F0EDFC0300DB05DA0D49
:40038000084B1A60074B1B68094A934203D1034B00221A60FFE7C046BD4680BD6C010020BC010020E8010020FF01008000FEFFFFFF01000080B500AF012002F039FB364BEE
:4003C0001A68F423FF339A420EDD002002F0FCFB012002F0D1FB304B1B68F53BFF3B5B00180002F047F90EE0012002F0EDFB002002F0C2FB284B1B68FA225200D31A5B0012
:40040000180002F037F9254B01221A7002F06EF80300234A94466344B42252005343002B02DA204A944663441B131A001E4B1A601E4B1A681E4B1A601B4B1A681B4B1A60AB
:4004400002F090FB031E12D002F0DCF903001A00184B5A43184B1B889BB21B031900100002F002FD03001A00144B1A6011E002F0C9F903001A00124B5A430F4B1B889BB291
:400480001B031900100002F0EFFC03001A000B4B1A60C046BD4680BDF8010020E40100200180FFFFFF0F00001C020020240200200802002060EA0000BC0100203C02002007
:4004C000A015FFFF80B500AF074B084A1A60084B00221A70074B084A1A6062B601F0CAFF014B1B689847FBE7CC000020550A0000F401002010020020F048000080B58EB08B
:4005000000AF3B003B633723FB1800221A70374B1B68FB624CE001F01BFF03003B603B683722BA183721791809781170FF2B3FD83B6B1B784D2B0CD13723FB181B78002B30
:4005400007D13723FB181A783723FB1801321A702EE03B6B1B784D2B0CD13723FB181B78012B07D13723FB181A783723FB1801321A701DE03723FB181B78012B14D9372341
:40058000FB181B78032B0FD83723FB181B78023B3A6B11783A1DD1543723FB181A783723FB1801321A7003E03723FB1800221A703723FB181B78032B06D80C4B1A68FB6A2A
:4005C000D31A0B4A9342A6D93723FB181B78032B06D13B1D1B781B023A1D52789B1800E000231800BD460EB080BDC0466C010020E703000080B58EB000AF3B003B6336239A
:40060000FB1800221A703723FB1800221A70384B1B68FB6272E001F09BFE03003B603B683722BA183721791809781170FF2B00D964E03B6B1B78502B0CD13723FB181B7874
:40064000002B07D13723FB181A783723FB1801321A7053E03B6B1B78412B0CD13723FB181B78012B07D13723FB181A783723FB1801321A7042E03B6B1B78522B0CD137235D
:40068000FB181B78022B07D13723FB181A783723FB1801321A7031E03B6B1B782E2B0CD13723FB181B78032B07D13723FB181A783723FB1801321A7020E03723FB181B78B7
:4006C000032B17D93723FB181B78292B12D83723FB181B78043B3A6B11783A1DD1543723FB181A783723FB1801321A7006E0C0466C0100203723FB1800221A703723FB188D
:400700001B78292B07D8C44B1A68FB6AD31AC34A934200D87FE73B1D1B789BB21B029AB23B1D5B789BB2D3189AB2BD4B1A803B1D9A78BB4B9A703B1DDB789BB21B029AB223
:400740003B1D1B799BB2D3189AB2B54B9A803B1D5B799BB21B029AB23B1D9B799BB2D3189AB2AF4BDA803B1DDB799BB21B029AB23B1D1B7A9BB2D3189AB2A94B1A813B1D0F
:400780005B7A9BB21B029AB23B1D9B7A9BB2D3189AB2A34B5A813B1DDB7A9BB21B029AB23B1D1B7B9BB2D3189AB29D4B9A813B1D5B7B9BB21B029AB23B1D9B7B9BB2D31892
:4007C0009AB2974BDA813B1DDB7B9BB21B029AB23B1D1B7C9BB2D3189AB2914B1A823B1D5B7C9BB21B029AB23B1D9B7C9BB2D3189AB28B4B5A823B1DDB7C9BB21B029AB232
:400800003B1D1B7D9BB2D3189AB2854B9A823B1D5B7D9BB21B029AB23B1D9B7D9BB2D3189AB27F4BDA823B1DDB7D9BB21B029AB23B1D1B7E9BB2D3189AB2794B1A833B1DC4
:400840005B7E9BB21B029AB23B1D9B7E9BB2D3189AB2734B5A833B1DDA7E714B1A773B1D1B7F9BB21B029AB23B1D5B7F9BB2D3189BB21AB26A4BDA833B1D9B7F9BB21B0243
:400880009AB23B1DDB7F9BB2D3189BB21AB2644B1A843B1D20229B5C9BB21B029AB23B1D21215B5C9BB2D3189AB25D4B5A843B1D22229B5C9BB21B029AB23B1D23215B5C5E
:4008C0009BB2D3189AB2564B9A843B1D24229B5C9BB21B029AB23B1D25215B5C9BB2D3189AB24F4BDA844E4B1B889AB24C4B9B889BB253409AB24A4BDB889BB253409AB207
:40090000474B1B899BB253409AB2454B5B899BB253409AB2424B9B8A9BB253409AB2404BDB8A9BB253409AB23D4B1B8B9BB253409AB23B4B5B8B9BB253409AB2384B9B8922
:400940009BB253409AB2364BDB899BB253409AB2334B9B899BB253409AB2314BDB899BB253409AB22E4B1B899BB253409BB21AB22B4BDB8B1BB253401AB2294B1B8C1BB25A
:4009800053401AB2264B9B8C9BB21BB253401AB2234B5B8C9BB21BB253401AB2204B9B78DBB29BB21B0299B21D4B1B7FDBB29BB2CB189BB21BB253401AB22A23FB181A8007
:4009C000174BDB8C9BB22A22BA1812889A4218D13623FB1801221A70114B9B78DBB25BB2002B0ADA0E4B9B78DBB2803BDAB20C4B9A700C4B01221A7007E00A4B00221A70A6
:400A000003E03623FB1800221A703623FB181B781800BD460EB080BD6C010020E7030000BC010020F401002080B584B000AF7860074B1B68FB60C046054B1A68FB68D21AF6
:400A40007B689A42F8D3C046BD4604B080BDC0466C01002080B500AF01F030F9134B180001F08AF9124B1900002001F0ABF901F0FBFA104B00221A7001F0FCFE0E4B180003
:400A800001F0E4FF01F04CFF01F05CFF01F0C0FDFA239B00180001F0DDFD002001F0EAFD064B074A1A60C046BD4680BDE8800000E1020000B8010020B5030000CC0000206F
:400AC000C50A0000B0B500AF02F03EF8031E09D1724B734A1A60734B00221A70022000F0C5FDD9E0002000F0E5FE6420FFF79CFF012000F0DFFE6420FFF796FF002000F0F0
:400B0000D9FE6420FFF790FF012000F0D3FEFA235B001800FFF788FF002000F0CBFEFFF769FD03001A00604B1A705F4B1B78DBB2002B00D1ADE05B4B1B78012B00D0ABE04C
:400B4000564B5A4A1A605A4B1B8C1BB2180002F0C3FF041C564BDB8B1BB2180002F0BCFF031C191C201C02F00FFE031C181C03F08BFD00224F4B02F0F7FF03000C001800F0
:400B8000210000224C4B03F005FB03000C00180021000022484B02F0E7FF03000C001800210003F0C5FD021C444B1A60404BDB8B1BB21A00FA239B0053436421180002F0BA
:400BC00053F903001A003E4B1A60394B1B7FDBB2413B052B1CD89A003A4BD3181B689F46394B3A4A1A6017E0374B394A1A6013E0354B384A1A600FE0334B374A1A600BE012
:400C0000314B324A1A6007E02F4B334A1A6003E02D4B304A1A60C046304B00221A60304B00221A602F4B00221A602F4B00221A60002001F04BFC01F01DFC2C4B180001F059
:400C400045FC01F08DFD1A4B1B889BB29B00013B180001F0A1FE002001F0B6FF002001F08BFF002001F006FD01F05AFE204B00221A60002001F0A6FD002001F0B3FD1D4B42
:400C800000221A601C4B00221A601C4B00221A6002E0024B1A4A1A60BD46B0BDCC00002021160000F4010020B8010020050D0000BC0100200000594000408F40B401002098
:400CC00028020020F068000010020020F0480000F0500000F0580000F06000000C020020340200200002002020020020FF7F00003C0200201C0200206C010020E801002078
:400D0000C50A0000B0B582B000AF00237B6001F01BFF031E0CD1D64BD64A1A60D64B00221A70022000F0A2FC01F00CFE00F053FC012000F0BFFDD14B00221A7001F0E8FABD
:400D400003003B603B68532B13D1C94BCC4A1A60012000F08BFCC84B00221A7001F0F2FD002001F031FF002001F006FF002001F081FCC44B1B78DBB2012B01D000F02BFCCD
:400D8000C14B9B78DBB2312B00D0B0E0BF4B1A68BF4B1B689B00D3181B68180002F09CFE021CBC4B1B68191C101C02F0D9FB031C181C02F06FFE0200B74B1B68D3180A21E7
:400DC000180002F051F803001A00B44B1A60B34B1A68B34B1B68D21AB24B1A60B14B1A68B14B1B68D218B04B1A60AE4B1A68AF4B1B68D41AAE4B1A68AE4B1B681900100044
:400E000002F032F80300E3189F4A928992B25A4314009D4BDB899BB21A009B4B1B889BB25A43FA239900100002F01EF803001D00954B9B899BB21A009E4B1B68190010008B
:400E400002F012F80300EB181900200002F00CF803007B608C4B9B889BB21A00914B1B685A43894BDB889BB21900100001F0FCFF03001C00844B9B8A9BB21A008A4B1B689B
:400E80005343814A128892B25A437F4BDB8A9BB21900FA239B004B431900100001F0E4FF0300E2187B68D218834B1A60824B1A68824B1A607B4B1A687C4B1A607C4B7A68A4
:400EC0001A607D4B1B68002B02DA7B4B00221A60794B1A68FA239B009A4203DD764BFA2292001A60744B1A68754B1A600DE3664B9B78DBB2322B00D0EEE0674B1B6818001D
:400F000002F0EAFD041C614B1A68614B1B689B00D3181B68180002F0DFFD021C5D4B1B68191C101C02F01CFB031C191C201C02F087F8031C6349181C02F0F8F9031C181C83
:400F400002F0A8FD0200554B1A60544B1A685E4B1B68D21A534B1A60524B1A685B4B1B68D2185A4B1A604F4B1A68594B1B68D41A584B1A684F4B1B681900100001F074FF1C
:400F80000300E318404A128A92B25A4314003E4B5B8A9BB21A003C4B1B889BB25A43FA239900100001F060FF03001D00364B1B8A9BB21A003F4B1B681900100001F054FFF2
:400FC0000300EB181900200001F04EFF03007B602D4B1B899BB21A00324B1B685A432A4B5B899BB21900100001F03EFF03001C00254B1B8B9BB21A00344B1B685343224AD9
:40100000128892B25A43204B5B8B9BB21900FA239B004B431900100001F026FF0300E2187B68D318F533FF331A00244B1A60234B1B68002B02DA214B00221A601F4B1A68E5
:40104000FA239B009A4203DD1C4BFA2292001A601A4B1A68184B1A60124B1A681C4B1A601C4B7A681A60144B1A68154B1A604CE2CC00002021160000F4010020B80100202C
:40108000C50A0000E4010020BC01002010020020E8010020B401002028020020300200203C020020180200200C0200200002002020020020D000002038020020FC01002042
:4010C000F8010020000020411C020020340200202C02002004020020A54B9B78DBB2332B00D03AE1A34B1B68180002F0F5FC041CA14B1A68A14B1B689B00D3181B6818000B
:4011000002F0EAFC021C9E4B1B68191C101C02F027FA031C191C201C01F092FF031C9949181C02F003F9031C181C02F0B3FC0200954B1A60944B1A68944B1B68D21A944BC6
:401140001A60934B1A68934B1B68D218914B1A608F4B1A68904B1B68D41A904B1A68904B1B681900100001F07FFE0300E318804A128A92B25A4314007D4B5B8A9BB21A008D
:401180007B4B1B889BB25A43FA239900100001F06BFE03001D00764B1B8A9BB21A00804B1B681900100001F05FFE0300EB181900200001F059FE03007B606D4B1B899BB2FC
:4011C0001A00734B1B685A43694B5B899BB21900100001F049FE03001C00654B1B8B9BB21A006C4B1B685343614A128892B25A435F4B5B8B9BB21900FA239B004B4319008A
:40120000100001F031FE0300E2187B68D218654B1A605F4B1A68604B1A60604B7A681A60604B1B68604A934203DD5E4B5E4A1A6007E05C4B1B685D4A934202DA594B5B4A28
:401240001A60584B1A685A4B1B68D21A594B1A60594B1A68574B1B68D218574B1A60554B1A68564B1B68D41A554B1A684C4B1B681900100001F0F8FD0300E3183C4A92892E
:4012800092B25A4314003A4BDB899BB21A00384B1B889BB25A43FA239900100001F0E4FD03001D00324B9B899BB21A003C4B1B681900100001F0D8FD0300EB1819002000E1
:4012C00001F0D2FD03007B60294B9B889BB21A00384B1B685A43264BDB889BB21900100001F0C2FD03001C00214B9B8A9BB21A00314B1B6853431E4A128892B25A431C4BBF
:40130000DB8A9BB21900FA239B004B431900100001F0AAFD0300E2187B68D218294B1A60244B1A68254B1A60254B7A681A60254B1B68002B02DA234B00221A60214B1A688A
:40134000FA239B009A4203DD1E4BFA2292001A601C4B1A681C4B1A60D7E0054B9B78DBB2352B33D1FFF7CAF80200174B1A60CCE0BC0100202802002010020020E8010020EF
:40138000B401002000002041300200201C02002018020020340200202C02002004020020D0000020FC0100208813000078ECFFFF3C020020400200200C0200200002002049
:4013C0002002002038020020F8010020834B1A68834B1B689B00D3181B68180002F07CFB021C804B1B68191C101C02F0B9F8031C181C02F04FFB02007B4B1B68D318642153
:40140000180001F031FD03001A00784B1A60774B1A68774B1B68D218754B1A60734B1A68744B1B68D41A744B1A68744B1B681900100001F019FD0300E318714A928992B233
:401440005A4314006E4BDB899BB21A006C4B1B889BB25A43FA239900100001F005FD03001D00674B9B899BB21A00644B1B681900100001F0F9FC0300EB1801331900200029
:4014800001F0F2FC03007B605D4B9B8A9BB21A00574B1B6853435A4A128892B25A43584BDB8A9BB21900FA239B004B431900100001F0DAFC03001A00524B1A60524B7A680A
:4014C0001A604A4B1A684B4B1A604B4B7A681A60464B1B685B10F533FF331A004B4B1A604A4B1B68002B02DA484B00221A60474B1A68FA239B009A4203DD444BFA22920043
:401500001A60424B1A68424B1A60502000F016FE502000F013FE01F009FB03001C0001F0F7FA03002343DBB29B00180000F006FE334B1B889BB21B0A9BB2180000F0FEFDC0
:401540002F4B1B889BB2180000F0F8FD274B1B681B12180000F0F2FD244B1B68180000F0EDFD2A4B1B681B12180000F0E7FD274B1B68180000F0E2FD224B1B681B121800E5
:4015800000F0DCFD1F4B1B68180000F0D7FD1E4B1B681B12180000F0D1FD1B4B1B68180000F0CCFD1B4B1B681B12180000F0C6FD184B1B68180000F0C1FD174B1B681B1251
:4015C000180000F0BBFD144B1B68180000F0B6FD124B00221A70BD4602B0B0BD10020020E8010020B401002028020020300200200C0200200002002020020020D000002035
:40160000BC01002038020020FC01002018020020F80100203C0200201C020020E401002080B500AF002000F045F9002001F0CCFA002001F0A1FA002001F01CF801F084FA19
:40164000031E06D0064B074A1A60012000F00EF802E0034B044A1A60C046BD4680BDC046CC000020C50A00002116000080B582B000AF7860502000F061FD7B68180000F073
:401680005DFD1B4B1B889BB21B0A9BB2180000F055FD174B1B889BB2180000F04FFD002000F04CFD002000F049FD002000F046FD002000F043FD002000F040FD002000F059
:4016C0003DFD002000F03AFD002000F037FD002000F034FD002000F031FD002000F02EFD002000F02BFDC046BD4602B080BDC046BC01002080B582B000AF786039603A682F
:401700007B680021180003F0E9F8C046BD4602B080BDC04680B586B000AF7860396000233B6100237B612FE07B699B007A68D3181B68BB600F23FB18BA681A70BB68FF2244
:401740009343BB6018E03B695B003A68D3181B781A00BB68D31819003B695B003A68D3185B780B703B6901333B610F23FB181A780F23FB18013A1A700F23FB181B78002BEE
:40178000E1D17B6901337B617B69072BCCD9C046BD4606B080BDC04680B500AFC046BD4680BDC04680B500AF03F06CF803001B680C2B00D1FEE7FEE780B586B000AF224B7C
:4017C0007B61224B3B61204B7B6135E03B691B68FB603B695B68BB603B699B683B6000237B600CE0FB681A68BB681A60BB680433BB60FB680433FB607B6804337B607A68B5
:401800003B689A42EED13B69DB683B6000237B6008E0BB6800221A60BB680433BB607B6804337B607A683B689A42F2D13B6910333B617B69013B7B617B69002BC6D103F09D
:4018400027F8FEF73FFEFEE701000000106C000080B582B000AF00237B600FE07B68032B04D8104B7A689200D35800E00E4B0F4A796889008B507B6801337B607B682F2BC5
:40188000ECD9FEF733FC0A4B00221A608023DB058022D205126801210A431A60C046BD4602B080BD00000000A517000000000020C000002080B584B000AF0200FB1D1A707F
:4018C0000F4B1B68DAB20F23FB1840218A431A70FB1D1B789B01DBB240221340D9B20F23FB180F22BA1812780A431A70044B0F22BA1812781A60C046BD4604B080BDC0466F
:401900000001044090B585B000AF78600C23FC1801F08CF9030023707B68022B00D8AFE07B68302B00D9ABE05C4B1B78DBB21A007B689A420AD35A4A0F23FB1812781A707F
:40194000584A0E23FB1812781A703FE0564B1B78DBB21A007B689A420AD3544A0F23FB1812781A70524A0E23FB1812781A702DE0504B1B78DBB21A007B689A420AD34E4AD6
:401980000F23FB1812781A704C4A0E23FB1812781A701BE04A4B1B78DBB21A007B689A420AD3484A0F23FB1812781A70464A0E23FB1812781A7009E0444A0F23FB18127861
:4019C0001A70434A0E23FB1812781A707B68DA1E0B23FB183F498A5C1A700B23FB181B782F2B0DD97B682A2B0AD93B4B19221A60052001F011F90D23FB1819221A7007E0EB
:401A0000354B1B68DAB20D23FB183F210A401A700B23FA180D23FB1812781B789A4208D22D4B7A68033A2B498A5C1A60052001F0F3F82A4B7A6826498C4662441278D2B292
:401A40001A60274B0F22BA1812781A60254B0E22BA1812781A60052000F01CF90B23FA180D23FB1812781B789A420CD91A4B7A68033A18498A5C1A60052001F0CDF802E070
:401A8000002000F0FBF80C23FB181B78180001F0D1F8C046BD4605B090BDC046C0F1FF0FC1F1FF0FC2F1FF0FC3F1FF0FC4F1FF0FC5F1FF0FC6F1FF0FC7F1FF0FC8F1FF0F90
:401AC000C9F1FF0FCAF1FF0FCBF1FF0FCCF1FF0FCDF1FF0F786A00002CFF0B4028FF0B401CFF0B4020FF0B4080B584B000AF02003960FB1D1A7080239B05FB60FB1D1B78BC
:401B00000F2B02D9002000F0B9F8FB1D1B789B00FA68D3181B68BB60FB1D1B789B00FA68D3183A681A60BB681800BD4604B080BD80B584B000AF02003960FB1D1A708023C8
:401B40009B05FB60FB1D1B781F2B02D9002000F095F8FB1D1B7810339B00FA68D3181B68BB60FB1D1B7810339B00FA68D3183A681A60BB681800BD4604B080BD90B587B0EC
:401B800000AF0200FB1D1A70BB1D0A1C1A70BB1D1B78032B02D9002000F070F8FB1D1B781F2B02D9002000F069F8FB1D1B7803221340DB0006337B611323FC1801F036F8A1
:401BC00003002370FB1D1B789B08DBB29B00144A944663441B68FB6003227B699A401300DA43FB681340FB60BB1D1A787B699A401300FA681343FB60FB1D1B789B08DBB2CF
:401C00009B00074A94466344FA681A601323FB181B78180001F00EF8C046BD4607B090BD00E400E080B582B000AF0200FB1D1A70064BFA1D12781F210A40012191400A006C
:401C40001A60C046BD4602B080BDC04600E100E080B582B000AF0200FB1D1A70064BFA1D12781F210A40012191400A001A60C046BD4602B080BDC04680E100E080B582B0D8
:401C800000AF0200FB1D1A7001BEC046BD4602B080BDC04680B582B000AF0200BB1D1A80BB1D1B88044A12785343180000F0B4FFC046BD4602B080BDDC00002080B500AF0E
:401CC000064B1B68002B04D100F00AF8034B01221A6000F033F8C046BD4680BD8401002080B582B000AF00237B6007E0104B7A6892000021D1507B6801337B607B68042B1D
:401D0000F4D90C4B19000F20FFF7EEFE0A4B1A68FA239900100001F01DF80300180000F02BF800F045F8C046BD4602B080BDC04670010020F11D0000D400002080B500AFE2
:401D400000F00CF8044B044A126801210A431A60C046BD4680BDC04610E000E080B500AF044B044A126802210A431A60C046BD4680BDC04610E000E080B582B000AF786064
:401D8000044B7A681202120A1A60C046BD4602B080BDC04614E000E080B500AF034B1B681B0C012213401800BD4680BD10E000E080B500AF024B00221A60C046BD4680BDE9
:401DC00018E000E080B584B000AF78603960074B7A689200D358FB60044B7A6892003968D150FB681800BD4604B080BD7001002080B582B000AFFFF7CFFF0300012B13D1C4
:401E000000237B600DE00A4B7A689200D358002B04D0074B7A689200D35898477B6801337B607B68042BEED9C046BD4602B080BD7001002090B583B000AFFC1D00F0F6FE7C
:401E400003002370074B074A1268C02109020A431A60FB1D1B78180000F0ECFEC046BD4603B090BD00010B4080B500AF054B1A68C0231B02134001D0012300E000231800F1
:401E8000BD4680BD00010B4090B583B000AFFC1D00F0CCFE030023700D4B0D4A12680D490A408021C9010A431A60094B084A126808490A40802109020A431A60FB1D1B7832
:401EC000180000F0B7FEC046BD4603B090BDC04600010B40FF3FFFFF90B585B000AF78600B23FC1800F0A2FE03002370FFF7BCFF031E04D00123FB60FFF7C6FF01E0002341
:401F0000FB607B680D4A13407B600D4B0C4A12680C4911407A680A431A60094B1B68FB68012B01D1FFF786FF0B23FB181B78180000F080FEC046BD4605B090BD0404040043
:401F400010020B40FBFBFBFF80B500AF344B1B68042213401FD0334B1B680422134017D0314B1B6804221340DA432E4B1B681A402C4B1A602C4B1B68042293431A002A4B04
:401F80001A602A4B1B68002B02D0284B1B6898470420FFF7A1FF224B1A688023DB00134022D0204B1A688023DB00134017D01E4B1A688023DB001340DA431A4B1B681A40B1
:401FC000184B1A60184B1B68194A1A40164B1A60164B5B68002B02D0144B5B6898478023DB001800FFF778FF0D4B1A688023DB02134011D00B4B1A688023DB02134006D052
:402000000A4B9B68002B02D0084B9B6898478023DB021800FFF760FFC046BD4680BDC04610020B40E80000209001002094010020FFFBFFFF80B500AF00F0CEF8C046BD4677
:4020400080BDC04680B500AF064B064A1268802109060A431A6000F019F800F01FF8C046BD4680BD0000064080B500AF064B1B78002B04D1FFF7DEFF034B01221A70FFF787
:40208000E1FFC046BD4680BDA801002080B500AF0A20FFF7C7FDC046BD4680BD80B500AF00F01EF9C046BD4680BDC04680B582B000AF00237B600E4B1A680E4B1B689A4245
:4020C00011D00C4B1B6801333B603B68652B01D100233B60084A3B68D3181B78DBB27B60044B3A681A607B681800BD4602B080BD1C0300204C020020B402002080B582B076
:4021000000AF0C4B1B683B600B4B1B683A689A4205D3094B1B683A68D31A7B6005E0064B1B683A68D31A65337B607B681800BD4602B080BD1C0300204C02002080B584B04D
:4021400000AF78601D4B1A681D4B1B689A4209D11C4B1B680F221340082B03D01A4B7A681A6026E0154B1B680133FB60FB68642B01D10023FB60C046114B1B68FA689A423B
:40218000FAD0124B02221A607B68D9B2104AFB68D3180A1C1A70094BFA681A600D4B1B680222134005D10B4B0A4A126802210A431A60C046BD4604B080BDC04648020020C4
:4021C000440200200802064040020640800F064050020020880F064080B500AF274B284A1A60284B00221A60274B284A1A60284B284A1A60284B07221A60284B00221A604A
:40220000274B01221A60274B224A1A60264B00221A600A20FFF71CFD03210A20FFF7AEFC224B19000A20FFF783FC214B00221A60204B00221A60204B00221A601F4B00223C
:402240001A601F4B04221A601E4B00221A601D4B1B689AB21C4B1A801C4B00221A601C4B00221A601B4B00221A701B4B00221A601A4B00221A60C046BD4680BD00000640F6
:4022800008000002400006404800064001000A00000306400700008004030640100306404400064000020640040206403D2C0000880E0640C80E0640480F0640080F064006
:4022C000C80F0640880F0640AA0100201C0300204C02002019030020480200204402002080B500AF074B074A1268F0218A4390210A431A60044B054A12881A60C046BD464E
:4023000080BDC04610000140880F0640AA01002080B582B000AF00237B60FFF7EFFE031E03D0FFF7C3FE03007B60084B1A68D8239B00134005D000237B60044BD822920075
:402340001A607B681800BD4602B080BDC00F064080B582B000AF0A20FFF77AFCFFF7CEFE031E07D00A20FFF75DFCFFF79FFE03007B6008E00E4B1B687B600E4B04221A60F9
:402380000A20FFF74FFC0B4B1A68D8239B0013403B60084BD82292001A603B681B027A6813437B607B681800BD4602B080BDC04640030640C00F064090B583B000AF214B06
:4023C0001B78DAB2FB1D07218A431A701D4AFB1D1B7801210B43DBB213701A4B1B78DAB2FB1D03218A431A70164AFB1D1B78137000F0B4F8144B180000F090F8124B1800F0
:4024000000F064F8002000F047F800F055F80F4B180000F093F8BC1D00F008FC030023700B4A0B4B1B78DBB210210B43DBB21370BB1D1B78180000F0FDFBC046BD4603B0F3
:4024400090BDC04670000F40FEFF0000FFFF000091000F4080B500AF0549054B1B78DBB2802252421343DBB20B70C046BD4680BD70000F4080B500AF064B1B78002B04D16C
:40248000FFF79AFF034B01221A70FFF7E3FFC046BD4680BDB001002080B582B000AF0200FB1D1A70034AFB1D1B781370C046BD4602B080BD81000F4080B500AF024B1B78E2
:4024C000DBB21800BD4680BD61000F4080B582B000AF0200BB1D1A80034ABB1D1B881380C046BD4602B080BD00100F4080B500AF034B1B78034B1B889BB21800BD4680BDB0
:4025000000000F4080100F4080B500AF024B1B889BB21800BD4680BD80100F4080B582B000AF0200BB1D1A80034ABB1D1B881380C046BD4602B080BD40100F4080B582B032
:4025400000AF0200BB1D1A80034ABB1D1B881380C046BD4602B080BD60100F4080B500AF01E0FFF7D1FFFFF7A7FF03001A0040231340F6D1C046BD4680BDC04680B500AF35
:40258000114B8022D2041A600F4B0F4A12681A60002000F04FF80C4B0B4A12681A600B4B0C221A60012000F093F8094B31221A60FA239B00180000F04DF8002000F05AF80D
:4025C000C046BD4680BDC04600010540240105402801054090B583B000AFFC1D00F026FB03002370094B094A126801210A431A60FB1D1B78180000F01DFB1821012000F06B
:4026000049F8C046BD4603B090BDC0460000054080B500AF064B1B78002B04D1FFF7AEFF034B01221A70FFF7D5FFC046BD4680BDB101002080B582B000AF7860044B7A689E
:402640001204120C1A60C046BD4602B080BDC0460801054080B582B000AF7860044B7A681204120C1A60C046BD4602B080BDC0461401054080B582B000AF7860044B7A681C
:402680001204120C1A60C046BD4602B080BDC0460C01054090B585B000AF786039600F23FC1800F0C3FA03002370084B79683A6891400A001A600F23FB181B78180000F0EE
:4026C000B9FAC046BD4605B090BDC0460800054080B582B000AF7860034B7A681A60C046BD4602B080BDC0463801054080B500AF094B802292041A60084B00221A600020BC
:4027000000F0AAF8064B180000F04CF8002000F039F8C046BD4680BD80010540A4010540FFFF000090B583B000AFFC1D00F07EFA03002370094B094A126804210A431A60EA
:40274000FB1D1B78180000F075FA1821042000F065F8C046BD4603B090BDC0460000054080B500AF064B1B78002B04D1FFF7BEFF034B01221A70FFF7D5FFC046BD4680BDB3
:40278000B201002080B582B000AF7860044B7A681204120C1A60C046BD4602B080BDC0468801054080B582B000AF7860044B7A681204120C1A60C046BD4602B080BDC046E2
:4027C0009401054080B582B000AF7860044B7A681204120C1A60C046BD4602B080BDC0468C01054080B582B000AF7860044B7A681204120C1A60C046BD4602B080BDC04697
:402800009001054080B500AF034B1B681B041B0C1800BD4680BDC0468C01054090B585B000AF786039600F23FC1800F0FFF903002370084B79683A6891400A001A600F23DC
:40284000FB181B78180000F0F5F9C046BD4605B090BDC0460800054080B582B000AF7860034B7A681A60C046BD4602B080BDC046B801054080B500AF044B044A126880212E
:4028800009060A431A60C046BD4680BD4400024080B500AF104B8022D2041A600E4B0E4A12681A60002000F067F80B4B0A4A12681A600A4B0C221A60012000F0ABF8084B8F
:4028C00031221A60032000F067F8012000F074F8C046BD4680BDC04640010540640105406801054090B583B000AFFC1D00F09EF903002370094B094A126802210A431A608A
:40290000FB1D1B78180000F095F91821022000F063F8C046BD4603B090BDC0460000054080B500AF064B1B78002B04D1FFF7B0FF034B01221A70FFF7D5FFC046BD4680BDE4
:40294000B301002090B583B000AFFC1D00F06EF903002370074B074A126802218A431A60FB1D1B78180000F065F9C046BD4603B090BDC0460000054080B582B000AF78607C
:40298000044B7A681204120C1A60C046BD4602B080BDC0464801054080B582B000AF7860044B7A681204120C1A60C046BD4602B080BDC0465401054080B582B000AF786059
:4029C000044B7A681204120C1A60C046BD4602B080BDC0464C01054090B585B000AF786039600F23FC1800F021F903002370084B79683A6891400A001A600F23FB181B78E5
:402A0000180000F017F9C046BD4605B090BDC0460800054080B582B000AF7860034B7A681A60C046BD4602B080BDC0467801054080B582B000AF7860034B7A681A60C0462E
:402A4000BD4602B080BDC0467001054080B582B000AF786000F050F87B68180000F00AF8002000F015F800F03BF8C046BD4602B080BDC04680B582B000AF7860034B842176
:402A80007A685A50C046BD4602B080BD0000002090B585B000AF0200FB1D1A700E23FB600B23FC1800F0C2F8030023700A4B0A4A12680A491140FA1D1078FA6890400200FD
:402AC0000A431A600B23FB181B78180000F0B2F8C046BD4605B090BD10E400E0FF3FFFFF80B500AF034B802292021A60C046BD4680BDC04600E100E080B500AF034B8022AB
:402B000092021A60C046BD4680BDC04680E100E080B500AF044B1B68042213409B08DBB21800BD4680BDC0460400044080B500AF044B1B68022213405B08DBB21800BD46BD
:402B400080BDC0460400044080B500AF044B1B68DBB201221340DBB21800BD4680BDC0460400044080B500AF024B1B78DBB21800BD4680BD60000F4080B584B000AF02006C
:402B8000FB1D1A700F4B1B68DAB20F23FB1820218A431A70FB1D1B785B01DBB220221340D9B20F23FB180F22BA1812780A431A70044B0F22BA1812781A60C046BD4604B0BD
:402BC00080BDC0460001044080B584B000AF0200FB1D1A700F4B1B68DAB20F23FB1810218A431A70FB1D1B781B01DBB210221340D9B20F23FB180F22BA1812780A431A704E
:402C0000044B0F22BA1812781A60C046BD4604B080BDC046000104400230800804D0C0460138FDD1C046C046C0467047EFF3108072B6704780F310887047C04680B582B015
:402C400000AF334B1B68002B02D0314B1B689847304B1B680422134026D02F4B1B6801337B607B68652B01D100237B602B4B1B687A689A4205D12A4B1B682A4B20221A7047
:402C80000AE0274B1B68D9B2274A7B68D3180A1C1A70214B7A681A60244B1B680F221340DBD1234B04221A60224B1B680222134029D0214B1A68214B1B689A4213D01F4B5D
:402CC0001B6801333B603B68642B01D100233B601B4B1C493A688A181278D2B21A60174B3A681A6006E0184B174A126802218A431A6005E0154B1B680F221340082BD8D1F5
:402D0000134B02221A60C046BD4602B080BDC046AC010020CC0F06401C0300204C0200204003064019030020B402002008030640C00F06408C0F064048020020440200204C
:402D40004002064050020020880F064008020640800F0640002243088B4274D303098B425FD3030A8B4244D3030B8B4228D3030C8B420DD3FF22090212BA030C8B4202D39F
:402D80001212090265D0030B8B4219D300E0090AC30B8B4201D3CB03C01A5241830B8B4201D38B03C01A5241430B8B4201D34B03C01A5241030B8B4201D30B03C01A52414D
:402DC000C30A8B4201D3CB02C01A5241830A8B4201D38B02C01A5241430A8B4201D34B02C01A5241030A8B4201D30B02C01A5241CDD2C3098B4201D3CB01C01A5241830962
:402E00008B4201D38B01C01A524143098B4201D34B01C01A524103098B4201D30B01C01A5241C3088B4201D3CB00C01A524183088B4201D38B00C01A524143088B4201D378
:402E40004B00C01A5241411A00D20146524110467047FFE701B5002000F0F0F802BDC0460029F7D076E7704703460B437FD4002243088B4274D303098B425FD3030A8B42D9
:402E800044D3030B8B4228D3030C8B420DD3FF22090212BA030C8B4202D31212090265D0030B8B4219D300E0090AC30B8B4201D3CB03C01A5241830B8B4201D38B03C01A61
:402EC0005241430B8B4201D34B03C01A5241030B8B4201D30B03C01A5241C30A8B4201D3CB02C01A5241830A8B4201D38B02C01A5241430A8B4201D34B02C01A5241030AE6
:402F00008B4201D30B02C01A5241CDD2C3098B4201D3CB01C01A524183098B4201D38B01C01A524143098B4201D34B01C01A524103098B4201D30B01C01A5241C3088B42A7
:402F400001D3CB00C01A524183088B4201D38B00C01A524143088B4201D34B00C01A5241411A00D201465241104670475DE0CA0F00D04942031000D34042534000229C46F9
:402F800003098B422DD3030A8B4212D3FC22890112BA030A8B420CD3890192118B4208D3890192118B4204D389013AD0921100E08909C3098B4201D3CB01C01A52418309CB
:402FC0008B4201D38B01C01A524143098B4201D34B01C01A524103098B4201D30B01C01A5241C3088B4201D3CB00C01A524183088B4201D38B00C01A5241D9D243088B42E0
:4030000001D34B00C01A5241411A00D20146634652415B10104601D34042002B00D54942704763465B1000D3404201B5002000F005F802BD0029F8D016E770477047C046AE
:40304000F8B54A02430244004E00C50F240E28009B09360EC90F92098D4259D0A01B002800DC8DE0002E1AD1002A00D079E05A0704D00F221A40042A00D004335A0138D50A
:403080000134FF2C00D189E028009B015B0AE4B25B02E4055B0A2343C0071843F8BDFF2CE5D08021C9040A431B2800DD89E016002021C640081A8240511E8A4132439B1A06
:4030C0005A0114D59B019E09300001F0BDFB05388640844265DC041B330020200134E340041BA640721E964100243343BFE75A07BFD1DF082800FF2C2FD1002F00D187E03E
:403100008022D20313003B435B025B0AFF24BFE7A11B002949DD002E29D0FF2CA7D08026F60432431B2900DD8DE017002026CF40711A8A40511E8A413A439B185A01D6D554
:403140000134FF2C64D0012276491A405B080B4013438CE7031ECAD100207B025B0AE4B296E701380028AAD0FF2C9DD17FE7002A00D17CE701390029DFD0FF2CD2D176E7C2
:40318000002820D1601CC0B2012853DD80279E1AFF0437402FD0D61A0D0095E72800002376E7614B241A334061E700294DD1611CCEB2012E2FDDFF292AD09B185B080C004E
:4031C00055E701227BE7002C1BD1002B5BD0C04300280CD0FF2E7ED01B2800DD92E01D002024C540201A8340581E83412B43D31A34000D0064E7002E00D065E7002000247A
:40320000ABE7FF2E67D08024E40440422343E3E7FF2400233CE7002C61D1002B7ED0002A00D124E79B185A0100D460E73E4A0C0013401CE7002C1ED1002B2FD1002A66D05B
:4032400013000D0013E7012277E7002C1FD1002B5AD0C94300290BD0FF2E50D01B295FDC1F002024CF40611A8B40591E8B413B439B18340062E7002B1CD1002A4AD013004E
:403280000D00FF24F3E6130034000D00EFE6FF2E35D08024E40449422343DFE7002A00D1E5E68027981AFF04074000D152E7D31A0D00DCE6FF24002A00D1D8E68020DB08D9
:4032C000C003034204D0D208024201D113000D00DB00FF24CBE61300FF240D00C7E6002B0DD0FF24002A00D1C1E68021DB08C9030B42EDD0D2080A42EAD11300E8E7130046
:40330000FF24B4E6012372E713003400AFE60027002022E780270020FF03F1E61300A6E60123A5E7FFFFFF7DFFFFFFFBF0B5564644465F464D46F0B444024600C70F83B08A
:403340008846650A360EBA463DD0FF2E22D00023EC00802599469B46ED0425437F3E43465C025800DB0F640A000E984636D0FF2830D080230021E400DB041C437F38301A7F
:403380000190484642460843724E800030587A4013008746002D44D108239946063B9B46DDE70122FF2000241A406402C305640AD2071C431443200003B03CBC904699461C
:4033C000A246AB46F0BD002D20D104239946033B9B46C4E7002C17D1022102E0002C0AD10121321A01924A4643460A435A48920082587B409746200001F026FA431F7630F3
:403400009C4040420021BAE70321B8E7280001F01BFA431F9D4000237630464299469B469DE70C239946093B9B4698E780240022E403FF20B9E70024C2468B465A46534653
:40344000022AAED0032A7DD0012A31D1012200201A400024A9E70122101A1B2856DD1A4000200024A1E78023DB031D424BD18023DB032B435C02640A3A00FF2095E76D01C7
:403480006001854230D2019A0024013A01921B220127290064006D00002901DBA84201D82D1A3C43013A002AF3D16A1E95412C4301987F300028CEDD620704D00F22224087
:4034C000042A00D00434220103D5244A019814408030FE2800DD64E70122A401640AC0B21A4062E72C00A9E72D1A1A220124CFE76B02BCD500248023DB031C436402640A07
:403500004246FF2051E71C42B3D1F4E721002022C140101A8440621E94410C43620704D00F222240042A00D00434620104D5012201201A40002438E70122A401640A1A4046
:40354000002032E78023DB031C436402640A5246FF202AE7A86A0000E86A0000FFFFFFF7F0B557464E4645464300E0B446028846760A1F0EC40F002F47D0FF2F25D00023E4
:4035800080259A469946F600ED042E437F3F434642465D02D20F5B006D0A1B0E904640D0FF2B39D080220020ED00D20415437F3BFB1842465746591C62408C4607430F2FEC
:4035C0005CD86F49BF00C9598F46002E45D108239A46063B9946DAE7424602282DD0032800D1C3E0012800D0A2E0002500260240D4B27602ED05760A2E43E407264330003E
:403600001CBC90469946A246F0BD002E1AD104239A46033B9946BAE72A00511E8A41901CC6E70120002DC3D0280001F00DF9431F76309D4043420020BAE70124FF25144005
:403640000026D6E7300001F0FFF8431F9E400023763047429A46994699E70C239A46093B994694E780260024F603FF25C1E735004846B2E7350022004846AEE72904090C2A
:403680000800370C3604360C2C0C7943704367437443060C64183619B14203D980214902884647440004000C310409188D01681E8541890E2943350CED19AD010D43290198
:4036C00004D5012369081D4063460D4319007F31002925DD680704D00F202840042800D00435280103D5274980330D401900FE29A3DC0124AD016E0A1440CDB279E78020B5
:40370000C003064207D0054205D128434602760A4446FF256DE706437602760AFF2568E70124611A1B2905DD14400025002660E76346CBE72E002023CE40591A8D406B1E52
:403740009D412E43730704D00F233340042B00D00436730104D5012401251440002648E70124B601760A1440002542E780260124F6032E437602760A1440FF2539E7C046C4
:40378000286B0000FFFFFFF7F8B54A024E0043024400240EC50F9B09360EC90F9209FF2E00D183E001204140A01BA9425CD0002800DC95E0002E1CD1002A00D081E05A072C
:4037C00004D00F221A40042A00D004335A013BD50134FF2C00D191E001209B015B0AE4B205405B02E4055B0AED0723432B431800F8BDFF2CE3D08021C9040A431B2800DD32
:4038000090E016002021C640081A8240511E8A4132439B1A5A0115D59B019E09300001F013F80538864084426CDC041B330020200134E340041BA640721E964100243343BE
:40384000BDE70D005A07BCD1DF0801231D40FF2C33D1002F00D190E08022D20313003B435B025B0AFF24BCE700284FDD002E2ED0FF2CA4D08025ED042A431B2800DD97E059
:4038800016002025C640281A8240501E824132439B185A01D5D50134FF2C6DD001227B481A405B08034013430D0088E7002A00D07AE777E7031EC5D100257B025B0AE4B2E3
:4038C0008FE701380028A4D0FF2C97D177E7002A00D174E701380028DAD0FF2CCDD16EE7002821D1601CC0B2012858DD80279E1AFF0437402FD0D61A0D008FE701231D40DB
:4039000000236EE7624B241A334058E7002851D1601CC6B2012E33DDFF282DD09B185B0804004CE7012274E7002C1AD0FF2E1FD08024E404404223431B2800DD96E01D00AD
:403940002024C540201A8340581E83412B43D31A34000D005EE7002E00D05FE700250024ABE7002B44D0C0430028F0D0FF2EE3D11300FF240D0022E70D00FF24002330E706
:40398000002C5DD1002B7DD0002A00D117E79B185A0100D456E73E4A040013400FE7002C1ED1002B2FD1002A65D013000D0006E701226DE7002C1FD1002B59D0C043002884
:4039C0000BD0FF2E4FD01B285EDC1D002024C540201A8340581E83412B439B18340058E7002B1CD1002A49D013000D00FF24E6E6130034000D00E2E6FF2E34D08024E404AF
:403A000040422343DFE7002A00D1D8E68027981AFF04074000D14DE7D31A0D00CFE6FF24002A00D1CBE68020DB08C003034204D0D208024201D113000D00DB00FF24BEE6E8
:403A4000002B10D0FF24002A00D1B8E68020DB08C003034203D0D208024200D11300DB000D00FF24ABE61300FF24A8E601236EE713003400A3E6002700251EE78027002559
:403A8000FF03E9E613009AE60123A6E7FFFFFF7DFFFFFFFB4302590A4300C20F1B0E00207E2B0EDD9D2B0DDC802000040143952B0BDC9620C31AD9400B005842002A00D15A
:403AC00018007047034BD018FBE7963B99400B00F3E7C046FFFFFF7F70B5002830D0C317C5185D40C40F280000F0AEFE9E231B1A962B0DDC9622D21A95406A02520AD8B22B
:403B00005202C005520AE40702432243100070BD992B19DC9922D21A9540124A2A40690704D00F210D40042D00D00432510103D50C4B1A409F231B1A9201520AD8B2DFE73A
:403B4000002400200022DBE705222E00121AB921D6402A00C91A8A40551EAA4135001543DBE7C046FFFFFFFBF0B556464D4644465F46F0B41D000E034C00CB0F87B00700F1
:403B800092468146360B640D98466AD06D4B9C4235D08022430F12041343F6001E43C3009946694B00279C460023644402932B0368001B0BED0F51469B46400D009500D1A8
:403BC00078E0604B98426CD05B46DA004B0F802109040B4313439B465346D9005A4B9C46002360444246201A6A40924601901F430F2F00D9B0E05548BF00C059874637434A
:403C000000D088E0002399460233082700260293CDE74346B34649460093029B009A9246022B00D0BFE1002153460122002689461A40444B002136030C0D2405360B264326
:403C4000434C1B0526401E437600D207760816434846310007B03CBC90469946A246AB46F0BD330003434FD0002E00D1BCE1300000F0EAFD03000B3B1C2B00DDADE11D228A
:403C80000100D31A08393A008F408E40DA40B9461643304B00279C46002360444442029385E753465A4613432CD1002300219B46023397E70B4320D05B46002B00D19EE1FC
:403CC000584600F0C1FD03000B3B1C2B00DD8FE102005946083A91408B461D21CB1A5146D9400B0059460B4351469B469140194B9C4660444042002374E7002300219B46F3
:403D000001336FE703236DE70023994601330427002602934BE703230C27029347E70122D51A382D00DCB0E153461A4000210023002689467EE7002380269946002236039D
:403D4000004B77E7FF07000001FCFFFF686B0000FFFF0F80F30300005E4500D972E100D16DE1019B4D46013B01930023340002935B461E020B0E1E430B020393330C99466E
:403D800033041B0C494620000093FEF7E3FF009B370043430600494620009846FFF760F82C0C09040C43A04509D9E419731EA74200D95CE1A04500D859E1023EE4194346AE
:403DC000E41A49462000FEF7C5FF0300009A80465343494620009B46FFF742F82A040904120C0A4393450DD94346D219013B974200D93AE1934500D837E102235B429C4657
:403E0000D219E0445B46D21A4346360433439B460399180C0B0C1D00059309045B46090C0C001B041B0C4443049159436B4368431B190D0CEB189C4203D980246402A4461C
:403E400060441C0C09041B04090C20185D18824200D2DEE000D1D7E0161A029B9C465D1BAC459B415B42F61AB74200D106E149463000FEF76FFF009B040043434946300054
:403E80009846FEF7EDFF2E0C09040E43B04509D9F619631EB74200D9F3E0B04500D8F0E0023CF6194346F31A494618000293FEF751FF009B06004343494602989846FEF77B
:403EC000CFFF2D0409042D0C0D43A84509D9ED19731EAF4200D9D6E0A84500D8D3E0023EED192404210043463143049E059A3000ED1A0B040C0C1B0C58436643534354430C
:403F00009A19030C9B189E4203D980225202944664441A0C00041B04000C14191B18A54250D34DD001231943964A019B94466344002B00DCF3E64A0709D00F220A40042ACC
:403F400005D00A1D8A42894149428B4411005A46D20108D55A468C4B1A4093468022D2009446019B6344894A934200DD5BE65A46C908500708435602514601225B058146A7
:403F8000360B5B0D0A4055E680231B031E4211D05A461A420ED15E461E433603360B2A0089467B4B46E6032B00D1E1E0012BBBD11A40BBE61E433603360B4246744B39E6D8
:403FC000002BB1D07D194A1EAF4252D91100A542A8D1039A9A42A5D1A6E703003E00283B9E400023994654E600F02EFC203041E603005246283B9A400021934677E65046FA
:4040000000F022FC20305EE6029B0026AB4200D323E7039E0299B44661448846B045B6415B467642F619B218013B0291974213D290424FD800D18EE0161A9B460DE78945F2
:4040400000D28EE674084B46F60735005B081D434B46DB0702938BE69742EDD10399029CA142E5D93E1A9B46F7E69846CAE61E00A5E6AC423ED874D0110053E70121494280
:4040800052E71C000EE71E002BE71F2D3CDC20230A0058465B1B9840EA4099400243481E81415E461143EE404B0709D00F230B40042B05D00B00191D99429B415B42F61804
:4040C00033023CD55346012200211A40002601238946AFE502235B429C46039CE344A446029B63449846A045B6417642F6190293B218B1E603988A1E41008142B641764291
:40410000F619AD19039161E71F225242D31A5A46DA401300202D29D040225846551BA8400143481E814107200B4318400026002809D00F2200261A401900042ABBD10B00B2
:4041400070077602360BDB0803439946012253461A4000236EE502998D42BBD89B4600267BE603989842C5D3110032E70020D7E780265B4636031E433603360B009A89463D
:40418000034B57E5FF030000FFFFFFFEFE070000FF070000F0B55F4656464D464446F0B40D0399464E002B0B87B00700924680469B46760DCC0F002E69D06D4B9E4235D034
:4041C0005B468022DD001204430F13432B439B46C3009846674B00279C460023664401934A4615035000D20F53462D0B400D914600D176E05E4A90426CD080225B0F120408
:4042000013435C4AED0094461D4353460022DB00604449463618701C6140029017430F2F00D9AFE05448BF00C759BF465B461F4300D088E000239B469846023308270193F0
:40424000CEE74946022A6AD0032A00D109E2012A00D0BBE111400022002300259046CCB200212D030A0D12052D0B1543434A1B0515401D436D00E4076D08254340462900B0
:4042800007B03CBC90469946A246AB46F0BD034352D05B46002B00D18AE1584600F0D4FA03000B3B1C2B00DD7BE11D22D31A3A0001005D46DA4008398D4013008F402B43FD
:4042C0009B46B8462E4B00279C46002360444642019385E752462A432CD100250023022297E752462A4321D0002D00D154E1280000F0AAFA03000B3B1C2B00DD46E11D216B
:40430000CB1A51460200D9405346083A954093400D431B4A944660444042002279E7012400220C40124B0025904699E70025002301226EE703226CE700239B469846013373
:40434000042701934CE703230C27019348E700238025984600242D03054B81E75D464346019A6FE75D4643462100019A6AE7C046FF07000001FCFFFFA86B0000FFFF0F8080
:40438000F30300004246120C91461A0C9446424617044A461B041B0C5A43604690464A4642431000039262461C003F0C7A437C4342440192220C9246019A5244904506D9AF
:4043C0008246802040028046C24450460390100C049048462404240C1204121905922A0C2D042D0C68432C00824648467C4350438146200C8046574357444744BA4503D93D
:40440000802040028046C144380C3F04B84648442404240C01900498A044404404905846000C814658460404200C8246070048465F434C4643436046604364468346504691
:404440004443380C8446E4186444A34203D980235B029C46E34448463F04230C3F0C2404E419574668436F4384464D46504655434243380C814662444A445B44944503D92C
:40448000802040028446654403983F04834604983F0C8446E344C345804140428246100484460198674484466744A344BC46A345A4419946D44464428742BF41D445804188
:4044C000E144A04699459B417F424042C8440743120CBA18A045A4415F423B0064422343D71843467D19DB0D6D021D435B465A02059B1A43531E9A415B46DB0D1A43434642
:404500005B021343EA0107D501225C0813402343EA07029E13436D08574AB218002A4BDD580709D00F201840042805D0181D98429B415B42ED180300E80104D54F4A1540A8
:404540008022D200B2184E48824200DDE7E60124DB08680718436D02530580462D0B5B0D0C407DE6802259461203114208D0154206D115432D0398462D0B4C46414B6FE68B
:404580005D4615432D032D0B3E4B69E603005546283B9D400023BCE6504600F055F92030A8E60300283B9F400023BB46984689E600F04AF9203073E60124A61A382E07DDAA
:4045C00000220C4000230025904649E6029EA3E71F2E20DC20222C001800921BF040944093400443581E83411C43F540630709D00F232340042B05D023001C1D9C42924185
:404600005242AD182B021FD5012400220C4001230025904624E61F202C004042821AD440202E1CD04022961BB5402B43581E83410720234318400025002809D00F2200255C
:404640001A401C00042AD8D1230068076D022D0B0124DB08034398460C40002300E60025E3E780220124120315432D0398462D0B0C40044BF4E5C046FF030000FFFFFFFE53
:40468000FE070000FF0700004200120E511C4302C9B270B55D0AC40F012915DDE02189008C466D071B0B6244002128000D0D2D052B431C4D52052B40520813435B00E40725
:4046C0005B082343190070BD002A15D1002D1FD0280000F0B9F80A281DDC0B232A001B1ADA4013000200153295400F4A1B03121A52051B0B520DD7E7002D06D080221B0BAB
:40470000120313436D07094ACEE7084A0023CBE700220023C8E703000B3B9D402B000025E3E7C046FFFF0F8089030000FF0700004B0070B55E0D0C03751C640A420F6D0566
:404740002243C90FC4006D0D012D2ADD3B4BF318FE2B1ADC002B42DD8001451EA841D2001043620F0243500704D00F201040042800D004328020C004104021D00133FF2B08
:4047800003D09201520ADBB201E0FF2300225202520ADB0513435B00C9075B080B43180070BD002E07D01443EFD08020D20080040243FF23D7E722430023002A03D005229C
:4047C000D208FF2B03D05202520ADBB2DFE7002A32D08020C00302435202520AD7E71800173014DB8020000402431E20C01A1F280FDC2500124BF3189D406E1EB5419A4056
:404800002B0013432200C2401A430023ABE70023D5E702256D42EB1A1500DD40202809D0084BF3189A401443621E9441220000232A4398E70022F6E70022A8E780FCFFFF75
:4048400082FCFFFFA2FCFFFF1C2101231B04984201D3000C10391B0A984201D3000A08391B09984201D30009043902A2105C40187047C04604030202010101010000000033
:4048800000000000014B18687047C0464C0100200E4B70B500251E000D4CE41AA410A54204D0AB00F35898470135F8E702F09EF9084B00251E00084CE41AA410A54204D0B1
:4048C000AB00F35898470135F8E770BDF86B0000F86B0000F86B0000006C000003008218934202D019700133FAE77047000000000000000000000000000000000000000073
:404900000000000000000000000000000000000000000000000000000000000000000000000000000000000000000000000000000000000000000000000000000000000077
:404940000000000000000000000000000000000000000000000000000000000000000000000000000000000000000000000000000000000000000000000000000000000037
:4049800000000000000000000000000000000000000000000000000000000000000000000000000000000000000000000000000000000000000000000000000000000000F7
:4049C00000000000000000000000000000000000000000000000000000000000000000000000000000000000000000000000000000000000000000000000000000000000B7
:404A00000000000000000000000000000000000000000000000000000000000000000000000000000000000000000000000000000000000000000000000000000000000076
:404A40000000000000000000000000000000000000000000000000000000000000000000000000000000000000000000000000000000000000000000000000000000000036
:404A800000000000000000000000000000000000000000000000000000000000000000000000000000000000000000000000000000000000000000000000000000000000F6
:404AC00000000000000000000000000000000000000000000000000000000000000000000000000000000000000000000000000000000000000000000000000000000000B6
:404B00000000000000000000000000000000000000000000000000000000000000000000000000000000000000000000000000000000000000000000000000000000000075
:404B40000000000000000000000000000000000000000000000000000000000000000000000000000000000000000000000000000000000000000000000000000000000035
:404B800000000000000000000000000000000000000000000000000000000000000000000000000000000000000000000000000000000000000000000000000000000000F5
:404BC00000000000000000000000000000000000000000000000000000000000000000000000000000000000000000000000000000000000000000000000000000000000B5
:404C00000000000000000000000000000000000000000000000000000000000000000000000000000000000000000000000000000000000000000000000000000000000074
:404C40000000000000000000000000000000000000000000000000000000000000000000000000000000000000000000000000000000000000000000000000000000000034
:404C800000000000000000000000000000000000000000000000000000000000000000000000000000000000000000000000000000000000000000000000000000000000F4
:404CC000000000000000000000000000000000000000000000000000000000000000000000000000000000000000000000000000E8030000E8030000E8030000E803000008
:404D0000E8030000E8030000E8030000E8030000E8030000E8030000E8030000E8030000E8030000E8030000E8030000E8030000E8030000E8030000E8030000E8030000C3
:404D4000E8030000E8030000E8030000E8030000E8030000E8030000E8030000E8030000E8030000E8030000E8030000E8030000E8030000E8030000E8030000E803000083
:404D8000E8030000E8030000E8030000E8030000E8030000E8030000E8030000E8030000E8030000E8030000E8030000E8030000E8030000E8030000E8030000E803000043
:404DC000E8030000E8030000E8030000E8030000E8030000E8030000E8030000E8030000E8030000E8030000E8030000E8030000E8030000E8030000E8030000E803000003
:404E0000E8030000E8030000E8030000E8030000E8030000E8030000E8030000E8030000E8030000E8030000E8030000E8030000E8030000E8030000E8030000E8030000C2
:404E4000E8030000E8030000E8030000E8030000E8030000E8030000E8030000E8030000E8030000E8030000E8030000E8030000E8030000E8030000E8030000E803000082
:404E8000E8030000E8030000E8030000E8030000E8030000E8030000E8030000E8030000E8030000E8030000E8030000E8030000E8030000E8030000E8030000E803000042
:404EC000E8030000E8030000E8030000E8030000E8030000E8030000E8030000E8030000E8030000E8030000E8030000E8030000E8030000E8030000E8030000E803000002
:404F0000E8030000E8030000E8030000E8030000E8030000E8030000E8030000E8030000E8030000E8030000E8030000E8030000E8030000E8030000E8030000E8030000C1
:404F4000E8030000E8030000E8030000E8030000E8030000E8030000E8030000E8030000E8030000E8030000E8030000E8030000E8030000E8030000E8030000E803000081
:404F8000E8030000E8030000E8030000E8030000E8030000E8030000E8030000E8030000E8030000E8030000E8030000E8030000E8030000E8030000E8030000E803000041
:404FC000E8030000E8030000E8030000E8030000E8030000E8030000E8030000E8030000E8030000E8030000E8030000E8030000E8030000E8030000E8030000E803000001
:40500000E8030000E8030000E8030000E8030000E8030000E8030000E8030000E8030000E8030000E8030000E8030000E8030000E8030000E8030000E8030000E8030000C0
:40504000E8030000E8030000E8030000E8030000E8030000E8030000E8030000E8030000E8030000E8030000E8030000E8030000E8030000E8030000E8030000E803000080
:40508000E8030000E8030000E8030000E8030000E8030000E8030000E8030000E8030000E8030000E8030000E8030000E8030000E8030000E8030000E8030000E803000040
:4050C000E8030000E8030000E8030000E8030000E8030000E8030000E8030000E8030000E8030000E8030000E8030000E80300000000000004000000080000000C00000094
:405100001000000014000000180000001B0000001F00000023000000270000002B0000002F00000033000000370000003B0000003F00000043000000470000004B0000009C
:405140004E00000052000000560000005A0000005E00000062000000660000006A0000006E00000072000000760000007A0000007D00000081000000850000008900000073
:405180008D0000009100000095000000990000009D000000A1000000A5000000A9000000AD000000B0000000B4000000B8000000BC000000C0000000C4000000C800000046
:4051C000CC000000D0000000D4000000D8000000DC000000E0000000E3000000E7000000EB000000EF000000F3000000F7000000FB000000FF000000030100000701000017
:405200000B0100000F01000013010000160100001A0100001E01000022010000260100002A0100002E01000032010000360100003A0100003E0100004201000045010000DC
:40524000490100004D0100005101000055010000590100005D0100006101000065010000690100006D0100007101000075010000780100007C0100008001000084010000B2
:40528000880100008C0100009001000094010000980100009C010000A0010000A4010000A8010000AB010000AF010000B3010000B7010000BB010000BF010000C301000085
:4052C000C7010000CB010000CF010000D3010000D7010000DB010000DE010000E2010000E6010000EA010000EE010000F2010000F6010000FA010000FE0100000202000057
:40530000060200000A0200000D0200001102000015020000190200001D0200002102000025020000290200002D0200003102000035020000390200003D020000400200001C
:4053400044020000480200004C0200005002000054020000580200005C0200006002000064020000680200006C0200007002000073020000770200007B0200007F020000F1
:4053800083020000870200008B0200008F02000093020000970200009B0200009F020000A3020000A6020000AA020000AE020000B2020000B6020000BA020000BE020000C4
:4053C000C2020000C6020000CA020000CE020000D2020000D5020000D9020000DD020000E1020000E5020000E9020000ED020000F1020000F5020000F9020000FD02000098
:405400000103000005030000080300000C0300001003000014030000180300001C0300002003000024030000280300002C0300003003000034030000380300003B0300005B
:405440003F03000043030000470300004B0300004F03000053030000570300005B0300005F03000063030000670300006B0300006E03000072030000760300007A03000030
:405480007E03000082030000860300008A0300008E03000092030000960300009A0300009D030000A1030000A5030000A9030000AD030000B1030000B5030000B903000004
:4054C000BD030000C1030000C5030000C9030000CD030000D0030000D4030000D8030000DC030000E0030000E4030000E8030000E4030000E0030000DC030000D803000027
:40550000D4030000D1030000CD030000C9030000C5030000C1030000BD030000B9030000B5030000B1030000AD030000A9030000A6030000A20300009E0300009A030000C8
:4055400096030000920300008E0300008A03000086030000820300007F0300007B03000077030000730300006F0300006B03000067030000630300005F0300005B03000071
:405580005703000054030000500300004C0300004803000044030000400300003C0300003803000034030000300300002C0300002903000025030000210300001D03000018
:4055C0001903000015030000110300000D030000090300000503000002030000FE020000FA020000F6020000F2020000EE020000EA020000E6020000E2020000DE020000CA
:40560000DA020000D7020000D3020000CF020000CB020000C7020000C3020000BF020000BB020000B7020000B3020000AF020000AC020000A8020000A4020000A002000077
:405640009C0200009802000094020000900200008C0200008802000085020000810200007D0200007902000075020000710200006D02000069020000650200006102000020
:405680005D0200005A02000056020000520200004E0200004A02000046020000420200003E0200003A02000036020000320200002F0200002B0200002702000023020000C7
:4056C0001F0200001B02000017020000130200000F0200000B020000080200000402000000020000FC010000F8010000F4010000F0010000EC010000E8010000E401000077
:40570000E0010000DD010000D9010000D5010000D1010000CD010000C9010000C5010000C1010000BD010000B9010000B5010000B2010000AE010000AA010000A601000026
:40574000A20100009E0100009A01000096010000920100008E0100008B01000087010000830100007F0100007B01000077010000730100006F0100006B01000067010000CF
:4057800063010000600100005C0100005801000054010000500100004C0100004801000044010000400100003C0100003801000035010000310100002D0100002901000076
:4057C00025010000210100001D0100001901000015010000110100000E0100000A0100000601000002010000FE000000FA000000F6000000F2000000EE000000EA00000025
:40580000E6000000E3000000DF000000DB000000D7000000D3000000CF000000CB000000C7000000C3000000BF000000BB000000B8000000B4000000B0000000AC000000D5
:40584000A8000000A4000000A00000009C0000009800000094000000910000008D0000008900000085000000810000007D0000007900000075000000710000006D0000007E
:405880006900000066000000620000005E0000005A00000056000000520000004E0000004A00000046000000420000003E0000003B00000037000000330000002F00000025
:4058C0002B00000027000000230000001F0000001B0000001700000014000000100000000C000000080000000400000000000000F4010000FA0100000002000006020000AC
:405900000D02000013020000190200001F020000250200002B02000031020000370200003D020000430200004902000050020000560200005C0200006202000068020000A2
:405940006D02000073020000790200007F020000850200008B02000091020000970200009C020000A2020000A8020000AE020000B3020000B9020000BF020000C402000074
:40598000CA020000CF020000D5020000DA020000E0020000E5020000EA020000F0020000F5020000FA020000FF020000050300000A0300000F0300001403000019030000A2
:4059C0001E03000023030000280300002C03000031030000360300003B0300003F03000044030000480300004D03000051030000560300005A0300005E0300006203000067
:405A0000660300006B0300006F03000073030000770300007A0300007E0300008203000086030000890300008D0300009003000094030000970300009A0300009E03000003
:405A4000A1030000A4030000A7030000AA030000AD030000B0030000B3030000B5030000B8030000BB030000BD030000C0030000C2030000C4030000C6030000C903000096
:405A8000CB030000CD030000CF030000D1030000D2030000D4030000D6030000D7030000D9030000DA030000DC030000DD030000DE030000E0030000E1030000E20300003E
:405AC000E3030000E3030000E4030000E5030000E6030000E6030000E7030000E7030000E7030000E8030000E8030000E8030000E8030000E8030000E8030000E80300000E
:405B0000E7030000E7030000E7030000E6030000E6030000E5030000E4030000E3030000E3030000E2030000E1030000E0030000DE030000DD030000DC030000DA03000011
:405B4000D9030000D7030000D6030000D4030000D2030000D1030000CF030000CD030000CB030000C9030000C6030000C4030000C2030000C0030000BD030000BB03000044
:405B8000B8030000B5030000B3030000B0030000AD030000AA030000A7030000A4030000A10300009E0300009A0300009703000094030000900300008D0300008903000099
:405BC00086030000820300007E0300007A03000077030000730300006F0300006B03000066030000620300005E0300005A03000056030000510300004D03000048030000F5
:405C0000440300003F0300003B03000036030000310300002C03000028030000230300001E03000019030000140300000F0300000A03000005030000FF020000FA02000038
:405C4000F5020000F0020000EA020000E5020000E0020000DA020000D5020000CF020000CA020000C4020000BF020000B9020000B3020000AE020000A8020000A202000041
:405C80009C02000097020000910200008B020000850200007F02000079020000730200006D02000068020000620200005C02000056020000500200004902000043020000C0
:405CC0003D02000037020000310200002B020000250200001F02000019020000130200000D0200000602000000020000FA010000F4010000EE010000E8010000E201000090
:405D0000DB010000D5010000CF010000C9010000C3010000BD010000B7010000B1010000AB010000A50100009F01000098010000920100008C010000860100008001000078
:405D40007B010000750100006F01000069010000630100005D01000057010000510100004C01000046010000400100003A010000350100002F010000290100002401000026
:405D80001E01000019010000130100000E0100000801000003010000FE000000F8000000F3000000EE000000E9000000E3000000DE000000D9000000D4000000CF0000007D
:405DC000CA000000C5000000C0000000BC000000B7000000B2000000AD000000A9000000A4000000A00000009B00000097000000920000008E0000008A0000008600000033
:405E0000820000007D0000007900000075000000710000006E0000006A00000066000000620000005F0000005B0000005800000054000000510000004E0000004A00000015
:405E40004700000044000000410000003E0000003B000000380000003500000033000000300000002D0000002B000000280000002600000024000000220000001F00000002
:405E80001D0000001B0000001900000017000000160000001400000012000000110000000F0000000E0000000C0000000B0000000A000000080000000700000006000000DA
:405EC000050000000500000004000000030000000200000002000000010000000100000001000000000000000000000000000000000000000000000000000000000000008A
:405F00000100000001000000010000000200000002000000030000000400000005000000050000000600000007000000080000000A0000000B0000000C0000000E00000005
:405F40000F0000001100000012000000140000001600000017000000190000001B0000001D0000001F000000220000002400000026000000280000002B0000002D00000052
:405F8000300000003300000035000000380000003B0000003E0000004100000044000000470000004A0000004E0000005100000054000000580000005B0000005F0000007D
:405FC00062000000660000006A0000006E0000007100000075000000790000007D00000082000000860000008A0000008E00000092000000970000009B000000A0000000A1
:40600000A4000000A9000000AD000000B2000000B7000000BC000000C0000000C5000000CA000000CF000000D4000000D9000000DE000000E3000000E9000000EE000000DE
:40604000F3000000F8000000FE00000003010000080100000E01000013010000190100001E01000024010000290100002F010000350100003A010000400100004601000056
:406080004C01000051010000570100005D01000063010000690100006F010000750100007B01000080010000860100008C01000092010000980100009F010000A501000054
:4060C000AB010000B1010000B7010000BD010000C3010000C9010000CF010000D5010000DB010000E2010000E8010000EE01000000000000020000000400000006000000F5
:40610000080000000A0000000C0000000E0000001000000012000000140000001600000017000000190000001B0000001D0000001F000000210000002300000025000000F7
:4061400027000000290000002B0000002D0000002F00000031000000330000003500000037000000390000003B0000003D0000003F000000410000004300000044000000C0
:4061800046000000480000004A0000004C0000004E00000050000000520000005400000056000000580000005A0000005C0000005E0000006000000062000000640000008F
:4061C00066000000680000006A0000006C0000006E0000007000000072000000730000007500000077000000790000007B0000007D0000007F000000810000008300000058
:406200008500000087000000890000008B0000008D0000008F00000091000000930000009500000097000000990000009B0000009D0000009F000000A0000000A200000020
:40624000A4000000A6000000A8000000AA000000AC000000AE000000B0000000B2000000B4000000B6000000B8000000BA000000BC000000BE000000C0000000C2000000EE
:40628000C4000000C6000000C8000000CA000000CC000000CD000000CF000000D1000000D3000000D5000000D7000000D9000000DB000000DD000000DF000000E1000000B9
:4062C000E3000000E5000000E7000000E9000000EB000000ED000000EF000000F1000000F3000000F5000000F7000000F9000000FA000000FC000000FE0000000001000081
:40630000020100000401000006010000080100000A0100000C0100000E01000010010000120100001401000016010000180100001A0100001C0100001E010000200100003D
:4063400022010000240100002601000027010000290100002B0100002D0100002F01000031010000330100003501000037010000390100003B0100003D0100003F0100000A
:4063800041010000430100004501000047010000490100004B0100004D0100004F01000051010000530100005501000056010000580100005A0100005C0100005E010000D2
:4063C00060010000620100006401000066010000680100006A0100006C0100006E01000070010000720100007401000076010000780100007A0100007C0100007E0100009D
:406400008001000082010000830100008501000087010000890100008B0100008D0100008F01000091010000930100009501000097010000990100009B0100009D0100006A
:406440009F010000A1010000A3010000A5010000A7010000A9010000AB010000AD010000AF010000B0010000B2010000B4010000B6010000B8010000BA010000BC01000033
:40648000BE010000C0010000C2010000C4010000C6010000C8010000CA010000CC010000CE010000D0010000D2010000D4010000D6010000D8010000DA010000DC010000FC
:4064C000DD010000DF010000E1010000E3010000E5010000E7010000E9010000EB010000ED010000EF010000F1010000F3010000F5010000F7010000F9010000FB010000CC
:40650000FD010000FF01000001020000030200000502000007020000090200000B0200000C0200000E02000010020000120200001402000016020000180200001A02000085
:406540001C0200001E02000020020000220200002402000026020000280200002A0200002C0200002E0200003002000032020000340200003602000038020000390200004C
:406580003B0200003D0200003F02000041020000430200004502000047020000490200004B0200004D0200004F02000051020000530200005502000057020000590200001B
:4065C0005B0200005D0200005F02000061020000630200006502000066020000680200006A0200006C0200006E0200007002000072020000740200007602000078020000E5
:406600007A0200007C0200007E02000080020000820200008402000086020000880200008A0200008C0200008E0200009002000092020000930200009502000097020000AD
:40664000990200009B0200009D0200009F020000A1020000A3020000A5020000A7020000A9020000AB020000AD020000AF020000B1020000B3020000B5020000B70200007A
:40668000B9020000BB020000BD020000BF020000C1020000C2020000C4020000C6020000C8020000CA020000CC020000CE020000D0020000D2020000D4020000D602000045
:4066C000D8020000DA020000DC020000DE020000E0020000E2020000E4020000E6020000E8020000EA020000EC020000EE020000EF020000F1020000F3020000F50200000E
:40670000F7020000F9020000FB020000FD020000FF02000001030000030300000503000007030000090300000B0300000D0300000F030000110300001303000015030000CE
:4067400017030000190300001B0300001C0300001E03000020030000220300002403000026030000280300002A0300002C0300002E03000030030000320300003403000096
:4067800036030000380300003A0300003C0300003E0300004003000042030000440300004603000048030000490300004B0300004D0300004F03000051030000530300005F
:4067C0005503000057030000590300005B0300005D0300005F03000061030000630300006503000067030000690300006B0300006D0300006F030000710300007303000029
:406800007503000076030000780300007A0300007C0300007E03000080030000820300008403000086030000880300008A0300008C0300008E0300009003000092030000F7
:406840009403000096030000980300009A0300009C0300009E030000A0030000A2030000A4030000A5030000A7030000A9030000AB030000AD030000AF030000B1030000BF
:40688000B3030000B5030000B7030000B9030000BB030000BD030000BF030000C1030000C3030000C5030000C7030000C9030000CB030000CD030000CF030000D103000088
:4068C000D2030000D4030000D6030000D8030000DA030000DC030000DE030000E0030000E2030000E4030000E6030000E8030000E00B0000E80B0000F00B0000F80B00003C
:40690000000C0000080C000000300F40000400400F40000401000F4056300F402E310F4004330F4003400F400F410F4004430F4002600F40816F0405060A08030C0A0E0513
:406940001410250127022D022E032F0530103103320C330436033E413F014010410449FF4AFF4BFF4DA04F0150185280580459095A045B045C905F016040628064406540B6
:40698000668068406A806C406D206E8080018F0394049D019E03AE0CB002B102B208B404B601B701BE50BF40C050C104C550C6C2C73EC83EC9FFCAFFCBFFCDAFCE07CF0148
:4069C000D018D40FD804D904DA04DB04DF01E040E280E440E540E680E840EA80EC40ED20EE8000100188050109080E200F021002160218511A421D011E281F402109278298
:406A00002820298037803F804041430147014BC04E014F02565A57405A405E085F5266187002782086408710C017C2A4C481CA0ACC10CE10D089D210D6F8D860DE04A8205F
:406A4000A908AD81E6400B020F10C260270443044F4056018E019340AB01AF50C820D040D220D620E810EC20EE4018208C10C608E602100111010000030405060708090A6B
:406A80000B0C0E0F101112131415161718191B1C1D1E1F2021222325262728292A2B2E2F30313233343500007E340000A23300006034000038340000603400002C3400009F
:406AC0006034000038340000A2330000A23300002C34000038340000E4340000E4340000E434000066340000A2330000A23300004C340000363400004C3400002C340000CA
:406B00004C34000036340000A2330000A23300002C34000036340000E4340000E4340000E4340000F03400007C360000DA350000DA350000D83500006E3600006E36000066
:406B400064360000D83500006E360000643600006E360000D8350000743600007436000074360000FE360000583D0000263C00002C3D00001C3C00002C3D0000363D0000B9
:406B80002C3D00001C3C0000263C0000263C0000363D00001C3C0000123C0000123C0000123C0000883F0000844300004442000044420000424200005C4300005C4300003F
:406BC0004E430000424200005C4300004E4300005C430000424200006443000064430000644300006445000043000000F8B5C046F8BC08BC9E467047A90200005118000072
:406C0000F8B5C046F8BC08BC9E46704781020000206C0000C800002088000000D001000000000000550A000004000000408AF701E8800000210000000000744001000000DB
:406C4000040404000000000000000000000000000000000000000000000000000000000000000000E86B0000000000000000000000000000000000000000000000000000B5
:406C8000000000000000000000000000000000000000000000000000000000000000000000000000EC000020000000000000000000000000000000000000000000000000C8
:406CC0000000000000000000000000000000000000000000000000000000000000000000000000000000000000000000000000000000000000000000000000000000000094
:406D00000000000000000000000000000000000000000000000000000000000000000000000000000000000000000000000000000000000000000000000000000000000053
:406D40000000000000000000000000000000000000000000000000000000000000000000000000000000000000000000000000000000000000000000000000000000000013
:406D800000000000000000000000000000000000000000000000000000000000000000000000000000000000000000000000000000000000000000000000000000000000D3
:0200000490303A
:02000000519F0E
:0200000490402A
:200000000000000000000000000000000000000000000000000000000000000000000000E0
:0200000490501A
:0C000000000204C81193110104E56332F2
:0200000490600A
:0100000001FE
:00000001FF